:060000000C9434000C9486
:1000060000000C9400000C9400000C9400000C946A
:1000160000000C9400000C9400000C9400000C945A
:1000260000000C9400000C9400000C9400000C944A
:1000360000000C9400000C9400000C9400000C943A
:1000460000000C9400000C9400000C9400000C942A
:1000560000000C9400000C9400000C9400000C941A
:100066000000F894EE27EFBBF1E0F5BFE5BFEFEF38
:10007600EDBFE8E0EEBFC0E0D3E00C944C00E3E057
:10008600E5BDE2EBE6BDA89BFECFE0E0E5BDA89AA4
:100096000895209A289AF3DF2898F1DFFBCFFFCF47
:00000001FF
